:020000040000fa
:080000000002040000000000f2
:020000040000fa
:04000800f6060000f8
:020000040000fa
:04000c008a06000060
:020000040000fa
:04001000aa0600003c
:020000040000fa
:0400140036070000ab
:020000040000fa
:0400180016070000c7
:020000040000fa
:04001c009e0700003b
:020000040000fa
:04002000ca0600000c
:020000040000fa
:040024009e07000033
:020000040000fa
:040028009e0700002f
:020000040000fa
:04002c007e0700004b
:020000040000fa
:040030009e07000027
:020000040000fa
:040034009e07000023
:020000040000fa
:040038009e0700001f
:020000040000fa
:04003c009e0700001b
:020000040000fa
:040040009e07000017
:020000040000fa
:040044009e07000013
:020000040000fa
:040048009e0700000f
:020000040000fa
:04004c009e0700000b
:020000040000fa
:040050009e07000007
:020000040000fa
:040054009e07000003
:020000040000fa
:040058009e070000ff
:020000040000fa
:04005c009e070000fb
:020000040000fa
:040060009e070000f7
:020000040000fa
:040064009e070000f3
:020000040000fa
:040068009e070000ef
:020000040000fa
:04006c009e070000eb
:020000040000fa
:040070009e070000e7
:020000040000fa
:040074009e070000e3
:020000040000fa
:040078009e070000df
:020000040000fa
:04007c009e070000db
:020000040000fa
:040080009e070000d7
:020000040000fa
:040084009e070000d3
:020000040000fa
:040088009e070000cf
:020000040000fa
:04008c009e070000cb
:020000040000fa
:040090009e070000c7
:020000040000fa
:040094009e070000c3
:020000040000fa
:040098009e070000bf
:020000040000fa
:04009c009e070000bb
:020000040000fa
:0400a0009e070000b7
:020000040000fa
:0400a4009e070000b3
:020000040000fa
:0400a8009e070000af
:020000040000fa
:0400ac009e070000ab
:020000040000fa
:0400b0009e070000a7
:020000040000fa
:0400b4009e070000a3
:020000040000fa
:0400b8009e0700009f
:020000040000fa
:0400bc009e0700009b
:020000040000fa
:0400c0009e07000097
:020000040000fa
:0400c4009e07000093
:020000040000fa
:0400c8009e0700008f
:020000040000fa
:0400cc009e0700008b
:020000040000fa
:0400d0009e07000087
:020000040000fa
:0400d4009e07000083
:020000040000fa
:0400d8009e0700007f
:020000040000fa
:0400dc0058070000c1
:020000040000fa
:0400e0009e07000077
:020000040000fa
:0400e4009e07000073
:020000040000fa
:0400e8009e0700006f
:020000040000fa
:0400ec009e0700006b
:020000040000fa
:0400f0009e07000067
:020000040000fa
:0400f4009e07000063
:020000040000fa
:0400f8009e0700005f
:020000040000fa
:0400fc009e0700005b
:020000040000fa
:040100009e07000056
:020000040000fa
:040104009e07000052
:020000040000fa
:040108009e0700004e
:020000040000fa
:04010c009e0700004a
:020000040000fa
:040110009e07000046
:020000040000fa
:040114009e07000042
:020000040000fa
:040118009e0700003e
:020000040000fa
:04011c009e0700003a
:020000040000fa
:040120009e07000036
:020000040000fa
:040124009e07000032
:020000040000fa
:040128009e0700002e
:020000040000fa
:04012c009e0700002a
:020000040000fa
:040130009e07000026
:020000040000fa
:040134009e07000022
:020000040000fa
:040138009e0700001e
:020000040000fa
:04013c009e0700001a
:020000040000fa
:040140009e07000016
:020000040000fa
:040144009e07000012
:020000040000fa
:040148009e0700000e
:020000040000fa
:04014c009e0700000a
:020000040000fa
:040150009e07000006
:020000040000fa
:040154009e07000002
:020000040000fa
:040158009e070000fe
:020000040000fa
:04015c009e070000fa
:020000040000fa
:040160009e070000f6
:020000040000fa
:040164009e070000f2
:020000040000fa
:040168009e070000ee
:020000040000fa
:04016c009e070000ea
:020000040000fa
:040170009e070000e6
:020000040000fa
:040174009e070000e2
:020000040000fa
:040178009e070000de
:020000040000fa
:04017c009e070000da
:020000040000fa
:040180009e070000d6
:020000040000fa
:040184009e070000d2
:020000040000fa
:040188009e070000ce
:020000040000fa
:04018c009e070000ca
:020000040000fa
:040190008a040000dd
:020000040000fa
:04019400540500000e
:020000040000fa
:040198009e070000be
:020000040000fa
:04019c0092050000c8
:020000040000fa
:0401a000d005000086
:020000040000fa
:0401a4009e070000b2
:020000040000fa
:0401a8009e070000ae
:020000040000fa
:0401ac009e070000aa
:020000040000fa
:0401b0009e070000a6
:020000040000fa
:0401b4009e070000a2
:020000040000fa
:0401b8000e0600002f
:020000040000fa
:0401bc004c060000ed
:020000040000fa
:0401c0009e07000096
:020000040000fa
:0401c4009e07000092
:020000040000fa
:0401c8009e0700008e
:020000040000fa
:0401cc009e0700008a
:020000040000fa
:0401d0009e07000086
:020000040000fa
:0401d4009e07000082
:020000040000fa
:0401d8009e0700007e
:020000040000fa
:0401dc009e0700007a
:020000040000fa
:0401e0009e07000076
:020000040000fa
:0401e4009e07000072
:020000040000fa
:0401e8009e0700006e
:020000040000fa
:0401ec009e0700006a
:020000040000fa
:0401f0009e07000066
:020000040000fa
:0401f4009e07000062
:020000040000fa
:0401f8009e0700005e
:020000040000fa
:0401fc009e0700005a
:020000040000fa
:040200009e07000055
:020000040000fa
:040204009e07000051
:020000040000fa
:040208009e0700004d
:020000040000fa
:04020c009e07000049
:020000040000fa
:040210009e07000045
:020000040000fa
:040214009e07000041
:020000040000fa
:040218009e0700003d
:020000040000fa
:04021c009e07000039
:020000040000fa
:040220009e07000035
:020000040000fa
:040224009e07000031
:020000040000fa
:040228009e0700002d
:020000040000fa
:04022c009e07000029
:020000040000fa
:040230009e07000025
:020000040000fa
:040234009e07000021
:020000040000fa
:040238009e0700001d
:020000040000fa
:04023c009e07000019
:020000040000fa
:040240009e07000015
:020000040000fa
:040244009e07000011
:020000040000fa
:040248009e0700000d
:020000040000fa
:04024c009e07000009
:020000040000fa
:040250009e07000005
:020000040000fa
:040254009e07000001
:020000040000fa
:040258009e070000fd
:020000040000fa
:04025c009e070000f9
:020000040000fa
:040260009e070000f5
:020000040000fa
:040264009e070000f1
:020000040000fa
:040268009e070000ed
:020000040000fa
:04026c009e070000e9
:020000040000fa
:040270009e070000e5
:020000040000fa
:040274009e070000e1
:020000040000fa
:040278009e070000dd
:020000040000fa
:04027c009e070000d9
:020000040000fa
:040280009e070000d5
:020000040000fa
:040284009e070000d1
:020000040000fa
:040288009e070000cd
:020000040000fa
:04028c009e070000c9
:020000040000fa
:040290009e070000c5
:020000040000fa
:040294009e070000c1
:020000040000fa
:040298009e070000bd
:020000040000fa
:04029c009e070000b9
:020000040000fa
:0402a0009e070000b5
:020000040000fa
:0402a4009e070000b1
:020000040000fa
:0402a8009e070000ad
:020000040000fa
:0402ac009e070000a9
:020000040000fa
:0402b0009e070000a5
:020000040000fa
:0402b4009e070000a1
:020000040000fa
:0402b8009e0700009d
:020000040000fa
:0402bc009e07000099
:020000040000fa
:0402c0009e07000095
:020000040000fa
:0402c4009e07000091
:020000040000fa
:0402c8009e0700008d
:020000040000fa
:0402cc009e07000089
:020000040000fa
:0402d0009e07000085
:020000040000fa
:0402d4009e07000081
:020000040000fa
:0402d8009e0700007d
:020000040000fa
:0402dc009e07000079
:020000040000fa
:0402e0009e07000075
:020000040000fa
:0402e4009e07000071
:020000040000fa
:0402e8009e0700006d
:020000040000fa
:0402ec009e07000069
:020000040000fa
:0402f0009e07000065
:020000040000fa
:0402f4009e07000061
:020000040000fa
:0402f8009e0700005d
:020000040000fa
:0402fc009e07000059
:020000040000fa
:040300009e07000054
:020000040000fa
:040304009e07000050
:020000040000fa
:040308009e0700004c
:020000040000fa
:04030c009e07000048
:020000040000fa
:040310009e07000044
:020000040000fa
:040314009e07000040
:020000040000fa
:040318009e0700003c
:020000040000fa
:04031c009e07000038
:020000040000fa
:040320009e07000034
:020000040000fa
:040324009e07000030
:020000040000fa
:10040000cf0321000eff22000e0188000000000033
:10041000000020000000e000020032000001200087
:100420002002880014000700c60207000000e00058
:1004300003003a00e06322000100200002003700c0
:100440000000200001002000810f70000100320038
:100450000f000700000020000000e0000200320052
:1004600000000200000000009e25020000000000c5
:100470000040da000000fe00207b20000000e000c9
:1004800002003200002020009001880000000600d9
:10049000a1028800800478000000eb001f003700f4
:1004a000e284440054a0b4009905ba00e2844400f8
:1004b00054a0b4009906ba00e284440054a0b400e9
:1004c0000006eb00476fde00fd07b200ae018800ba
:1004d000636ce10003003a000ad801000000eb0061
:1004e0000e003700606ce10008003a00004deb00a0
:1004f0000a05e800020039003420ec000af0a000f0
:100500008b05e900f9ff3e00040037006168e10057
:10051000010032000086eb000b00070019c7ba008b
:100520001905ba000e04e00003003a000a00e000da
:10053000dbff3a0000000600fe07b200ae028800b2
:100540008a047800f5ff37000cd0a300e20f4d00bd
:100550001c003b0089027800354dba000a05e8000e
:10056000020039003420ec000af0a0008b05e900fd
:100570000f003200254dba000a05e80002003900dc
:100580003420ec000af0a0008b05e90008003200de
:100590000c00e0000600320015cdba000a05e800a4
:1005a000020039003420ec000af0a0008b05e900bd
:1005b0008984e80054a0b4000b00e000e2ff3a0098
:1005c000000006009902ba00055d78008b05e9007d
:1005d000f7ff3200c82ade00055d78008b05e900d0
:1005e000f3ff32000c00e000f1ff320019ddba0029
:1005f000eeff3700000000000000000000000000d7
:1006000000000000000000000000000000000000ea
:1006100000000000000000000000000000000000da
:1006200000000000000000000000000000000000ca
:1006300000000000000000000000000000000000ba
:10091000000000003600f800809fbe00829fbe00ed
:10092000849fbe00869fbe003200f8003400f800ad
:1009300010002000a00188000020200000d0fe0050
:100940000200fa00408080000000e0000200320057
:1009500040808000000001005140800000802000a5
:10096000008060000000e0000a003200616080004a
:10097000010f7800508080000000e0000400320089
:10098000528080009e0078000000eb000200010011
:100990000b68a90051408000000022000080600028
:1009a0000000e0000a00320081608000010f780042
:1009b000508080000000e00004003200528080007f
:1009c0009e00780010002000020001000ba8a90082
:1009d0005140800000002400008060000000e00022
:1009e0000a00320091608000010f78005080800082
:1009f0000000e00004003200528080009e00780079
:100a000020002000020001000bc8a9006040800007
:100a1000700060000000e0000a003200f160800019
:100a2000010f7800508080000000e00004003200d8
:100a3000528080009e0078003000200002000100fb
:100a40000c88a90061408000000220000080600046
:100a50000000e0000a00320001618000010f780010
:100a6000508080000000e0000400320052808000ce
:100a70009e00780040002000020001000ca8a900a0
:100a80000b48a9000080fa003400f9003200f90098
:100a90004f03be004f02be004f01be004f00be001c
:100aa0003600f900004006003600f800809fbe00c6
:100ab000829fbe00849fbe00869fbe003200f80069
:100ac0003400f80010002000a00188000020200061
:100ad00000d0fe000200fa0061608000010f780083
:100ae000508080000000e00004003200528080004e
:100af0009e0078000000eb00020001000b68a900d6
:100b00000080fa003400f9003200f9004f03be0003
:100b10004f02be004f01be004f00be003600f9007c
:100b2000004006003600f800809fbe00829fbe0095
:100b3000849fbe00869fbe003200f8003400f8009b
:100b400010002000a00188000020200000d0fe003e
:100b50000200fa0081608000010f78005080800060
:100b60000000e00004003200528080009e00780007
:100b700010002000020001000ba8a9000080fa006c
:100b80003400f9003200f9004f03be004f02be00ee
:100b90004f01be004f00be003600f90000400600c5
:100ba0003600f800809fbe00829fbe00849fbe007a
:100bb000869fbe003200f8003400f80010002000cc
:100bc000a00188000020200000d0fe000200fa00f2
:100bd00091608000010f7800508080000000e000ec
:100be00004003200528080009e0078002000200027
:100bf000020001000bc8a9000080fa003400f900cf
:100c00003200f9004f03be004f02be004f01be008c
:100c10004f00be003600f900004006003600f80024
:100c2000809fbe00829fbe00849fbe00869fbe0044
:100c30003200f8003400f80010002000a001880005
:100c40000020200000d0fe000200fa00f1608000c9
:100c5000010f7800508080000000e00004003200a6
:100c6000528080009e0078003000200002000100c9
:100c70000c88a9000080fa003400f9003200f90065
:100c80004f03be004f02be004f01be004f00be002a
:100c90003600f900004006003600f800809fbe00d4
:100ca000829fbe00849fbe00869fbe003200f80077
:100cb0003400f80010002000a0018800002020006f
:100cc00000d0fe000200fa0001618000010f7800f0
:100cd000508080000000e00004003200528080005c
:100ce0009e00780040002000020001000ca8a9002e
:100cf0000080fa003400f9003200f9004f03be0012
:100d00004f02be004f01be004f00be003600f9008a
:100d1000004006003600f800809fbe00829fbe00a3
:100d2000849fbe00869fbe000000fa00c068a90034
:100d300020002000351007000080fa004f03be009d
:100d40004f02be004f01be004f00be003600f9004a
:100d5000004006003600f800809fbe00829fbe0063
:100d6000849fbe00869fbe000000fa00c608a9004e
:100d700070002000251007000080fa004f03be001d
:100d80004f02be004f01be004f00be003600f9000a
:100d9000004006003600f800809fbe00829fbe0023
:100da000849fbe00869fbe000000fa00204680009f
:100db000700060000000e00003003200c488a90059
:100dc000a000200011100700214680000010200024
:100dd000008060000000e00003003200c508a900a8
:100de000c000200009100700ffff37003600f800a0
:100df000809fbe00829fbe00849fbe00869fbe0073
:100e00000000fa00c028a9000000eb00ff0f070057
:100e10000080fa004f03be004f02be004f01be002b
:100e20004f00be003600f900004006003600f80012
:100e3000809fbe00829fbe00849fbe00869fbe0032
:100e40000000fa00c088a90030002000ef0f070062
:100e50000080fa004f03be004f02be004f01be00eb
:100e60004f00be003600f900004006003600f800d2
:100e7000809fbe00829fbe00849fbe00869fbe00f2
:100e80000000fa00e80f0700c048a9001000200089
:100e9000de0f07000080fa004f03be004f02be00c5
:100ea0004f01be004f00be003600f90000400600b2
:100eb0003600f800809fbe00829fbe00849fbe0067
:100ec000869fbe000000fa00308080000000e00035
:100ed00002003200308080000000010005a8a90057
:100ee0000080fa004f03be004f02be004f01be005b
:100ef0004f00be003600f900004006003600f80042
:100f0000809fbe00829fbe00849fbe00869fbe0061
:100f10000000fa00b0808000000001000028a90055
:100f20000080fa004f03be004f02be004f01be001a
:100f30004f00be003600f900004006000040da0015
:100f40000000fe00000005006022b800060220003c
:100f50000000d0008180d2000482d2008582d200bd
:100f60000000a0000202520083825a0003003100f8
:100f70000202420083824a000000a1000603e90049
:080f8000f3ff3a000000060037
:020000040000fa
:100f8800320000003300000034000000360000008a
:100f98003700000038000000390000003b00000066
:100fa8003c0000003d0000003e0000003f00000043
:100fb800410000004200000043000000440000001f
:100fc80045000000460000004700000048000000ff
:100fd8004a0000004b0000004c0000004d000000db
:100fe8004e0000004f0000005000000051000000bb
:100ff800520000005300000054000000540000009c
:10100800550000005600000057000000580000007e
:1010180059000000590000005a0000005b00000061
:101028005c0000005c0000005d0000005e00000045
:101038005e0000005f0000005f000000600000002c
:101048006000000061000000610000006100000015
:1010580062000000620000006300000063000000fe
:1010680063000000630000006300000064000000eb
:1010780064000000640000006400000064000000d8
:1010880064000000640000006400000064000000c8
:1010980064000000640000006300000063000000ba
:1010a80063000000630000006300000062000000ad
:1010b80062000000610000006100000061000000a3
:1010c80060000000600000005f0000005f0000009a
:1010d8005e0000005e0000005d0000005c00000093
:1010e8005c0000005b0000005a000000590000008e
:1010f800590000005800000057000000560000008a
:101108005500000054000000540000005300000087
:101118005200000051000000500000004f00000085
:101128004e0000004d0000004c0000004b00000085
:101138004a00000048000000470000004600000088
:101148004500000044000000430000004200000089
:10115800410000003f0000003e0000003d0000008c
:101168003c0000003b00000039000000380000008f
:101178003700000036000000340000003300000093
:101188003200000031000000300000002e00000096
:101198002d0000002c0000002b000000290000009a
:1011a800280000002700000026000000250000009d
:1011b80023000000220000002100000020000000a1
:1011c8001f0000001e0000001d0000001c000000a1
:1011d8001a000000190000001800000017000000a5
:1011e80016000000150000001400000013000000a5
:1011f80012000000110000001000000010000000a4
:101208000f0000000e0000000d0000000c000000a0
:101218000b0000000b0000000a000000090000009d
:101228000800000008000000070000000600000099
:101238000600000005000000050000000400000092
:101248000400000003000000030000000300000089
:101258000200000002000000010000000100000080
:101268000100000001000000010000000000000073
:101278000000000000000000000000000000000066
:101288000000000000000000000000000000000056
:101298000000000000000000000000000000000046
:1012a8000000000000000000000000000000000036
:101568000000000000000000010000000100000071
:10157800010000000100000001000000020000005e
:101588000200000003000000030000000300000048
:101598000400000004000000050000000500000031
:1015a8000600000006000000070000000800000018
:1015b80008000000090000000a0000000b000000fd
:1015c8000b0000000c0000000d0000000e000000e1
:1015d8000f000000100000001000000011000000c3
:1015e80012000000130000001400000015000000a5
:1015f8001600000017000000180000001900000085
:101608001a0000001c0000001d0000001e00000061
:101618001f00000020000000210000002200000040
:10162800230000002500000026000000270000001d
:1016380028000000290000002b0000002c000000fa
:101648002d0000002e0000003000000031000000d6
:101658000000000000000000000000000000000082
:101668000000000000000000000000000000000072
:101678000000000000000000000000000000000062
:101688000000000000000000000000000000000052
:10194800000000000100000001000000320000005b
:1019580033000000340000003600000037000000ab
:1019680038000000390000003b0000003c00000087
:101978003d0000003e0000003f0000004100000064
:101988004200000043000000440000004500000041
:101998004600000047000000480000004a00000020
:1019a8004b0000004c0000004d0000004e000000fd
:1019b8004f000000500000005100000052000000dd
:1019c80053000000540000005400000055000000bf
:1019d80056000000570000005800000059000000a1
:1019e800590000005a0000005b0000005c00000085
:1019f8005c0000005d0000005e0000005e0000006a
:101a08005f0000005f000000600000006000000050
:101a18006100000061000000610000006200000039
:101a28006200000063000000630000006300000023
:101a38006300000063000000640000006400000010
:101a480064000000640000006400000064000000fe
:101a580064000000640000006400000064000000ee
:101a680064000000630000006300000063000000e1
:101a780063000000630000006200000062000000d4
:101a880061000000610000006100000060000000cb
:101a9800600000005f0000005f0000005e000000c2
:101aa8005e0000005d0000005c0000005c000000bb
:101ab8005b0000005a0000005900000059000000b7
:101ac80058000000570000005600000055000000b4
:101ad80054000000540000005300000052000000b1
:101ae80051000000500000004f0000004e000000b0
:101af8004d0000004c0000004b0000004a000000b0
:101b080048000000470000004600000045000000b3
:101b180044000000430000004200000041000000b3
:101b28003f0000003e0000003d0000003c000000b7
:101b38003b000000390000003800000037000000ba
:101b480036000000340000003300000032000000be
:101b580031000000300000002e0000002d000000c1
:101b68002c0000002b0000002900000028000000c5
:101b780027000000260000002500000023000000c8
:101b88002200000021000000200000001f000000cb
:101b98001e0000001d0000001c0000001a000000cc
:101ba80019000000180000001700000016000000cf
:101bb80015000000140000001300000012000000cf
:101bc8001100000010000000100000000f000000cd
:101bd8000e0000000d0000000c0000000b000000cb
:101be8000b0000000a0000000900000008000000c7
:101bf80008000000070000000600000006000000c2
:101c080005000000050000000400000004000000ba
:101c180003000000030000000300000002000000b1
:101c280002000000010000000100000001000000a7
:101c3800010000000100000000000000000000009a
:101c4800000000000000000000000000000000008c
:101c5800000000000000000000000000000000007c
:101c6800000000000000000000000000000000006c
:101c7800000000000000000000000000000000005c
:101c8800000000000000000000000000000000004c
:101c9800000000000000000000000000000000003c
:101ca800000000000000000000000000000000002c
:101cb800000000000000000000000000000000001c
:101cc800000000000000000000000000000000000c
:101cd80000000000000000000000000000000000fc
:101ce80000000000000000000000000000000000ec
:101cf80000000000000000000000000000000000dc
:101d080000000000000000000000000000000000cb
:101d180000000000000000000000000000000000bb
:101d2800a4170000681800002e10000024100000fe
:101d38003810000044100000501000005c10000033
:101d4800ae0f00007e100000a0100000e21000009e
:101d5800041100004a110000ac110000021200003a
:101d680034120000501200006c12000088120000ab
:101d7800a4120000c6120000e812000012130000ae
:101d880034130000a413000084140000141400008d
:101d9800000000000000000000000000000000003b
:101da8000000000000000000920f0000760f000005
:101db800da150000fc1500001e1600007c15000056
:101dc80098150000881700004016000092160000c1
:101dd800e416000036170000061900000000000095
:101de8002019000000000000f41e0000ec1f000095
:101df800101f000000000000c41a0000081b0000ab
:101e08004c1b0000861b000000000000741d000031
:101e18001c1e0000241c0000de1c00006a190000c3
:101e2800721900007a190000821900008a1900004e
:101e380092190000dc1900006c1a00008a1a0000d0
:101e4800921a00009a1a0000a21a0000c01e000090
:101e5800d81e0000f88e0000062000002620000092
:101e68003c2000005a200000702000008420000060
:101e7800a4200000c6200000ce20000000000000c2
:101e880000000000d6200000fc2000001421000003
:101e9800862100009c210000b82100001a220000c1
:101ea8002c210000000000000000000000000000dd
:101eb800000000000000000000000000b024000046
:101ec800c4240000d2240000de240000e82400001e
:101ed8009c240000a6240000f42400001225000021
:041ee80000000000f6
:020000040000fa
:101eec000200fa00000f78001e007800e10f50008d
:101efc0003003200e20f50000300320004003700f0
:101f0c002be3a8000200370061e3a80000000000ea
:101f1c000080fa00000006000200fa00000f7800b2
:101f2c001e007800e10f500003003200e20f500059
:101f3c0003003200040037002be3a9000200370035
:101f4c0061e3a900000000000080fa000000060018
:101f5c000400fa00000f7800110798001e007800aa
:101f6c00e10f500003003200e20f50001900320064
:101f7c00300037001e009000004078006740600081
:101f8c000080fb00670060005219800081ff2f0069
:101f9c008100610001007000501988001e00900043
:101fac00e20f500006003a0091198000f0fc2f005f
:101fbc00008060000040a000901988001d003700d0
:101fcc0091198000f0fc2f000080600090198800af
:101fdc00180037001e009000004078006740600039
:101fec000080fb0067006000021b800081ff2f0057
:101ffc008100610001007000001b88001e00900031
:10200c00e20f500006003a00411b8000f0fc2f004c
:10201c00008060000040a000401b880005003700d5
:10202c00411b8000f0fc2f0000806000401b8800ea
:10203c00000000000080fa00000006000000fa001a
:10204c002be3a80061e3a8000080fa000000060062
:10205c000000fa002be3a90061e3a9000080fa005c
:10206c00000006000200fa00000f78009e007800c5
:10207c00511888000080fa00000006000200fa00e7
:10208c00000f78009e007800411888000080fa004c
:10209c00000006000200fa00000f78009e00780095
:1020ac00311888000080fa00000006000400fa00d5
:1020bc00000f7800110798001e007800e10f500007
:1020cc0003003200e20f500004003200060037001b
:1020dc009e009000911a8800030037009e0090002b
:1020ec00411c8800000000000080fa00000006007f
:1020fc000400fa00000f7800110798001e00780009
:10210c00e10f500003003200e20f500004003200d7
:10211c00060037009e009000711a880003003700fb
:10212c009e009000211c8800000000000080fa0036
:10213c00000006000400fa00000f78001107980058
:10214c001e007800e10f500003003200e20f500037
:10215c000c003200160037001e0090000040780082
:10216c00614060000080fb00610060004d00dd00fc
:10217c006119800001d0a100010070006019880075
:10218c000b0037001e00900000407800614060009a
:10219c000080fb00610060004d00dd00111b800021
:1021ac0001d0a10001007000101b8800000000008d
:1021bc000080fa00000006000400fa00000f78000e
:1021cc00110798001e007800e10f50000300320048
:1021dc00e20f500004003200060037009e00900011
:1021ec00611a8800030037009e009000111c8800c3
:1021fc00000000000080fa00000006000400fa0055
:10220c00000f7800110798001e007800e10f5000b5
:10221c0003003200e20f50000d00320018003700ae
:10222c001e00900000407800634060000080fb00be
:10223c00630060004a00dd0082198000f13f2f002e
:10224c008100610001007000801988000c003700cb
:10225c001e00900000407800634060000080fb008e
:10226c00630060004a00dd00321b8000f13f2f004c
:10227c008100610001007000301b8800000000002c
:10228c000080fa00000006000400fa00000f78003d
:10229c00214798001e007800e10f50000300320027
:1022ac00e20f500014003200260037008019800025
:1022bc00ba800a0000000000e14060002e4090004f
:1022cc000080fb00000040000040780000c070005f
:1022dc00634060000080fb00630060004a00dd008a
:1022ec0082198000f13f2f00810061000100700015
:1022fc008019880013003700301b8000ba800a0058
:10230c0000000000e14060002e4090000080fb00c7
:10231c00000040000040780000c070006340600086
:10232c000080fb00630060004a00dd00321b80006f
:10233c00f13f2f008100610001007000301b88000c
:10234c00000000000080fa00000006000400fa0003
:10235c00000f7800214798001e007800e10f500014
:10236c0003003200e20f5000110032002000370051
:10237c0080198000ba800a0000000000e240600072
:10238c002e40900000c07000634060000080fb0095
:10239c00630060004a00dd0082198000f13f2f00cd
:1023ac008100610001007000801988001000370066
:1023bc00301b8000ba800a0000000000e240600080
:1023cc002e40900000c07000634060000080fb0055
:1023dc00630060004a00dd00321b8000f13f2f00db
:1023ec008100610001007000301b880000000000bb
:1023fc000080fa00000006000400fa0010079800a4
:10240c000000eb00000f78001e009000e10f500060
:10241c0003003200e20f5000070032000c003700be
:10242c0080198000ba800a00000000000080fb00c8
:10243c00000f780006003700301b8000ba800a00bd
:10244c00000000000080fb00000f7800000000007e
:10245c001e0078000080fa00000006000200fa005e
:10246c00000f78001e007800e10f500003003200ce
:10247c00e20f5000030032000400370031a3a80023
:10248c000200370067a3a800000000000080fa00db
:10249c00000006000200fa00000f78001e00780011
:1024ac00e10f500003003200e20f50000300320035
:1024bc00040037003183a800020037006783a800ae
:1024cc00000000000080fa00000006000200fa0084
:1024dc00000f78001e007800e10f5000030032005e
:1024ec00e20f5000030032000400370031a3a900b2
:1024fc000200370067a3a900000000000080fa006a
:10250c00000006000200fa00000f78001e007800a0
:10251c00e10f500003003200e20f500003003200c4
:10252c00040037003183a900020037006783a9003b
:10253c00000000000080fa00000006000400fa0011
:10254c00000f7800110798001e007800e10f500072
:10255c0003003200e20f5000040032000600370086
:10256c009e009000d11a8800030037009e00900056
:10257c00811c8800000000000080fa0000000600aa
:10258c000400fa00000f7800110798001e00780074
:10259c00e10f500003003200e20f50000400320043
:1025ac00060037009e009000e11a880003003700f7
:1025bc009e009000911c8800000000000080fa0032
:1025cc00000006000400fa00000f780011079800c4
:1025dc001e007800e10f500003003200e20f5000a3
:1025ec00060032000a0037009e009000d11a8800c5
:1025fc009e009000e11a8800050037009e009000b4
:10260c00811c88009e009000911c88000000000036
:10261c000080fa00000006000400fa00000f7800a9
:10262c00110798001e007800e10f500003003200e3
:10263c00e20f500004003200060037009e009000ac
:10264c00a11a8800030037009e009000511c8800de
:10265c00000000000080fa00000006000400fa00f0
:10266c00000f7800110798001e007800e10f500051
:10267c0003003200e20f5000180032002d0037002a
:10268c001e009000e20f50000c003200e20f5000d0
:10269c0003003e00e10f5000060032000d00370031
:1026ac00e30f500007003200e40f50000700320027
:1026bc000800370037e3a8000700370037c3a8002d
:1026cc000500370037a3a800030037003783a800a4
:1026dc000100370000000000160037001e009000bb
:1026ec00e20f50000c003200e20f500003003e00dd
:1026fc00e10f5000060032000d003700e30f5000d0
:10270c0007003200e40f50000700320008003700c9
:10271c006de3a800060037006dc3a8000400370065
:10272c006da3a800020037006d83a8000000000014
:10273c00000000000080fa00000006000400fa000f
:10274c00000f7800110798001e007800e10f500070
:10275c0003003200e20f5000180032002d00370049
:10276c001e009000e20f50000c003200e20f5000ef
:10277c0003003e00e10f5000060032000d00370050
:10278c00e30f500007003200e40f50000700320046
:10279c000800370037e3a9000700370037c3a9004a
:1027ac000500370037a3a900030037003783a900c1
:1027bc000100370000000000160037001e009000da
:1027cc00e20f50000c003200e20f500003003e00fc
:1027dc00e10f5000060032000d003700e30f5000ef
:1027ec0007003200e40f50000700320008003700e9
:1027fc006de3a900060037006dc3a9000400370083
:10280c006da3a900020037006d83a9000000000031
:10281c00000000000080fa00000006000400fa002e
:10282c00000f7800110798001e007800e10f50008f
:10283c0003003200e20f5000180032002d00370068
:10284c001e009000e20f50000c003200e20f50000e
:10285c0003003e00e10f5000060032000d0037006f
:10286c00e30f500007003200e40f50000700320065
:10287c00080037002fc3a900070037002fa3a900b9
:10288c00050037002f83a900030037002fe3a900b0
:10289c000100370000000000160037001e009000f9
:1028ac00e20f50000c003200e20f500003003e001b
:1028bc00e10f5000060032000d003700e30f50000e
:1028cc0007003200e40f5000070032000800370008
:1028dc0065c3a9000600370065a3a90004003700f2
:1028ec006583a9000200370065e3a9000000000021
:1028fc00000000000080fa00000006000600fa004c
:10290c0010079800210798000040eb00004f78005a
:10291c001e009000e10f500003003200e20f500047
:10292c00380032006e0037002e009000e20f50008d
:10293c0014003200e20f500003003e00e10f500083
:10294c00060032002d003700e30f50001700320054
:10295c00e40f50001f00320028003700701980006f
:10296c00ee800a00000000000080fb0000f0a700d1
:10297c000000ea000000ea004f00de00004f780083
:10298c001f00370070198000dd800a000000000075
:10299c000080fb0000f0a7000000ea000000ea0045
:1029ac004f00de00004f78001500370070198000d2
:1029bc00cc800a00000000000080fb0000f0a700a3
:1029cc000000ea000000ea004f00de00004f780033
:1029dc000b00370070198000ff800a000000000017
:1029ec000080fb0000f0a7000000ea000000ea00f5
:1029fc004f00de00004f780001003700000000009f
:102a0c00370037002e009000e20f50001400320007
:102a1c00e20f500003003e00e10f500006003200b0
:102a2c002d003700e30f500017003200e40f500068
:102a3c001f00320028003700201b8000ee800a00a7
:102a4c00000000000080fb0000f0a7000000ea007e
:102a5c000000ea004f00de00004f78001f00370036
:102a6c00201b8000dd800a00000000000080fb00bd
:102a7c0000f0a7000000ea000000ea004f00de00b2
:102a8c00004f780015003700201b8000cc800a0016
:102a9c00000000000080fb0000f0a7000000ea002e
:102aac000000ea004f00de00004f78000b003700fa
:102abc00201b8000ff800a00000000000080fb004b
:102acc0000f0a7000000ea000000ea004f00de0062
:102adc00004f7800010037000000000000000000eb
:102aec001e4078000080fa00000006000200fa0088
:102afc00000f78001e007800e10f50000300320038
:102b0c00e20f500003003200040037002e63a800cf
:102b1c00020037006463a800000000000080fa0087
:102b2c00000006000400fa00100798000040eb00bb
:102b3c00004f78001e009000e10f5000030032009f
:102b4c00e20f50000b0032001400370070198000a7
:102b5c0044800a00000000000080fb0000f0a70089
:102b6c000000ea000000ea004f00de00004f780091
:102b7c000a003700201b800044800a00000000007f
:102b8c000080fb0000f0a7000000ea000000ea0053
:102b9c004f00de00004f7800000000001e4078005f
:102bac000080fa00000006000400fa00000f780014
:102bbc00110798001e007800e10f5000030032004e
:102bcc00e20f500004003200060037009e00900017
:102bdc00a11a8800030037009e009000511c880049
:102bec00000000000080fa00000006000400fa005b
:102bfc00000f7800110798001e007800e10f5000bc
:102c0c0003003200e20f50000400320006003700cf
:102c1c009e009000b11a8800030037009e009000bf
:102c2c00611c8800000000000080fa000000060013
:102c3c000400fa00000f7800110798001e007800bd
:102c4c00e10f500003003200e20f5000040032008c
:102c5c00060037009e009000c11a88000300370060
:102c6c009e009000711c8800000000000080fa009b
:102c7c00000006000400fa00000f7800110798000d
:102c8c001e007800e10f500003003200e20f5000ec
:102c9c00100032001e0037001e009000e20f5000a2
:102cac0007003200e30f500007003200e10f500024
:102cbc0001003200060037003503a800040037007d
:102ccc003523a800020037003543a800000000009f
:102cdc000f0037001e009000e20f5000060032007b
:102cec00e30f500006003200e10f500006003a00de
:102cfc006b03a800050037006b23a8000300370006
:102d0c006b43a80001003700000000000000000029
:102d1c000080fa00000006000400fa00000f7800a2
:102d2c00110798001e007800e10f500003003200dc
:102d3c00e20f5000100032001e0037001e00900001
:102d4c00e20f500007003200e30f50000700320082
:102d5c00e10f500001003200060037003503a900d6
:102d6c00040037003523a900020037003543a900c1
:102d7c00000000000f0037001e009000e20f500012
:102d8c0006003200e30f500006003200e10f500045
:102d9c0006003a006b03a900050037006b23a9005d
:102dac00030037006b43a90001003700000000004e
:102dbc00000000000080fa00000006000400fa0089
:102dcc00000f7800110798001e007800e10f5000ea
:102ddc0003003200e20f5000100032001e003700da
:102dec001e009000e20f500007003200e30f50006d
:102dfc0007003200e10f50000100320006003700de
:102e0c0036a3a8000400370036c3a8000200370020
:102e1c0036e3a800000000000f0037001e009000f1
:102e2c00e20f500006003200e30f500006003200a3
:102e3c00e10f500006003a006ca3a8000500370013
:102e4c006cc3a800030037006ce3a8000100370036
:102e5c0000000000000000000080fa0000000600e6
:102e6c000400fa00000f7800110798001e0078008b
:102e7c00e10f500003003200e20f5000100032004e
:102e8c001e0037001e009000e20f500007003200b9
:102e9c00e30f500007003200e10f50000100320038
:102eac000600370036a3a9000400370036c3a9007a
:102ebc000200370036e3a900000000000f003700c5
:102ecc001e009000e20f500006003200e30f50008d
:102edc0006003200e10f500006003a006ca3a90076
:102eec00050037006cc3a900030037006ce3a90090
:102efc000100370000000000000000000080fa0014
:102f0c00000006000200fa00000f78001e00780096
:102f1c00e10f500003003200e20f500003003200ba
:102f2c000400370038e3a800020037006ee3a80065
:102f3c00000000000080fa00000006000000fa000b
:102f4c00c000200050198800c0002000001b880021
:102f5c005e23ef003e23ef003c23ef0000902000a7
:102f6c006019880020032000701a88005023ef009d
:102f7c005c23ef005a23ef003623ef008000200083
:102f8c00a01988004223ef004023ef003a23ef0002
:102f9c003823ef00d0022000901988000024200074
:102fac00801988004a23ef004823ef0030062000e8
:102fbc00901a88004c23ef004623ef004423ef00c7
:102fcc002e23ef005423ef005623ef005823ef007d
:102fdc009423ef007423ef007223ef000090200085
:102fec00101b880020032000201c88008623ef0083
:102ffc009223ef009023ef006c23ef008000200061
:10300c00501b88007823ef007623ef007023ef002d
:10301c006e23ef00d0022000401b8800002420000b
:10302c00301b88008023ef007e23ef003006200049
:10303c00401c88008223ef007c23ef007a23ef00f2
:10304c006423ef008a23ef008c23ef008e23ef0024
:10305c001023ef000e23ef000223ef000423ef00f8
:10306c000c23ef001223ef001423ef001623ef00c4
:10307c001823ef001a23ef001c23ef00400620005a
:10308c0040188800700c2000501888000623ef00b0
:10309c000023ef001e23ef002023ef002223ef007c
:1030ac002423ef002623ef002823ef00809121003a
:1030bc00530007002be3a80061e3a8000080fa008e
:1030cc00000006000000fa00e1fb07002a23ef00d5
:1030dc006023ef005e23ef003e23ef003c23ef0064
:1030ec002c23ef004e23ef005023ef005c23ef0066
:1030fc005a23ef003623ef003423ef004223ef0076
:10310c004023ef003a23ef003823ef003223ef0087
:10311c003023ef004a23ef004823ef005223ef0047
:10312c004c23ef004623ef004423ef002e23ef0047
:10313c005423ef005623ef005823ef009423ef00a5
:10314c007423ef007223ef006223ef008423ef005f
:10315c008623ef009223ef009023ef006c23ef0007
:10316c006a23ef007823ef007623ef007023ef0043
:10317c006e23ef006823ef006623ef008023ef003f
:10318c007e23ef008823ef008223ef007c23ef00e7
:10319c007a23ef006423ef008a23ef008c23ef00e7
:1031ac008e23ef001023ef000e23ef000223ef001d
:1031bc000423ef000c23ef001223ef001423ef0085
:1031cc001623ef001823ef001a23ef001c23ef0047
:1031dc000823ef000a23ef000623ef000023ef0083
:1031ec001e23ef002023ef002223ef002423ef0007
:1031fc002623ef002823ef000080fa0000000600d1
:10320c000200fa00000f78001e0078000000e000b9
:10321c00020032009e007800918088000080fa0045
:10322c00000006000200fa00000f78000080fa008f
:10323c00000006000200fa00000f78001e00780063
:10324c00e10f500003003200e20f50000d0032007d
:10325c001b00370040408000680060000000e00068
:10326c0014003200908080000000e0000300320067
:10327c00918080001e007800010001000868a90000
:10328c000f00370040408000700060000000e0003c
:10329c000a003200908080000000e0000300320041
:1032ac00918080001e007800010001000888a900b0
:1032bc000300370000000000010037000000000090
:1032cc000080fa00000006000000fa0001eba800e4
:1032dc000080fa00000006000000fa0001eba900d3
:1032ec000080fa00000006000000fa0008cba800dd
:1032fc000080fa00000006000000fa0008cba900cc
:10330c000080fa00000006000200fa00000f7800ae
:10331c000080fa00000006000400fa001007980074
:10332c000000eb00000f78001e009000e20f500030
:10333c0012003200e20f500005003e000000e000d9
:10334c0008003200e10f5000090032001400370071
:10335c00e30f50000c003200e40f50000d0032005f
:10336c000f00370061608000010f78000c003700ff
:10337c0081608000010f78000900370091608000a7
:10338c00010f780006003700f1608000010f780013
:10339c000300370001618000010f7800000000007d
:1033ac001e0078000080fa00000006000400fa00fd
:1033bc00100798000040eb00004f78001e009000b2
:1033cc00e20f500020003200e20f500005003e00da
:1033dc000000e00008003200e10f50001000320045
:1033ec0037003700e30f500021003200e40f50008b
:1033fc0029003200320037008059800000800a001a
:10340c00000000000080fb0000f0a7000000ea00b4
:10341c000000ea004f00de00004f78002800370063
:10342c008059800022800a00000000000080fb0010
:10343c0000f0a7000000ea000000ea004f00de00e8
:10344c00004f78001e0037008059800033800a003e
:10345c00000000000080fb0000f0a7000000ea0064
:10346c000000ea004f00de00004f78001400370027
:10347c008059800099800a00000000000080fb0049
:10348c0000f0a7000000ea000000ea004f00de0098
:10349c00004f78000a00370080598000aa800a008b
:1034ac00000000000080fb0000f0a7000000ea0014
:1034bc000000ea004f00de00004f78000000000022
:1034cc001e4078000080fa00000006000200fa009e
:1034dc00000f78001e007800004078006340600008
:1034ec000080fb00630060004500dd001258800086
:1034fc00f1f92f0081006100010070001058880064
:10350c000080fa00000006000000fa002b48a8001a
:10351c000080fa00000006000000fa002b48a90009
:10352c000080fa00000006000000fa000b48a90019
:10353c000080fa00000006000200fa00000f78007c
:10354c001e00780000407800674060006740600013
:10355c00674060000080fb00670060004800dd00f1
:10356c0062438000f18f2f00810061000100700028
:10357c00604388000080fa00000006000200fa0098
:10358c00000f78001e007800e20f5000120032008d
:10359c00e20f500005003e000000e0000800320081
:1035ac00e10f50000900320014003700e30f500007
:1035bc000c003200e40f50000d0032000f003700f9
:1035cc002b68a800200ba8000c0037002ba8a80023
:1035dc00204ba800090037002bc8a800206ba800be
:1035ec00060037002c88a800212ba8000300370008
:1035fc002ca8a800214ba800000000000080fa00b5
:10360c00000006000200fa00000f78001e0078008f
:10361c00e20f500012003200e20f500005003e0095
:10362c000000e00008003200e10f500009003200f9
:10363c0014003700e30f50000c003200e40f500070
:10364c000d0032000f0037002b68a900200ba900d9
:10365c000c0037002ba8a900204ba900090037004b
:10366c002bc8a900206ba900060037002c88a900e4
:10367c00212ba900030037002ca8a900214ba9007d
:10368c00000000000080fa00000006000200fa00b2
:10369c00000f78001e007800e20f5000100032007e
:1036ac00e20f500005003e000000e0000800320070
:1036bc00e10f5000080032000f003700e30f5000fc
:1036cc0009003200e40f5000090032000a003700f4
:1036dc000b68a900080037000ba8a90006003700ea
:1036ec000bc8a900040037000c88a90002003700a1
:1036fc000ca8a900000000000080fa0000000600e1
:10370c000400fa00000f7800110798001e007800e2
:10371c00e20f500024003200e20f500005003e0082
:10372c000000e00008003200e10f500012003200ef
:10373c0040003700e30f500027003200e40f500028
:10374c00300032003b0037001e0090000040780033
:10375c00674060000080fb00670060004c00dd00eb
:10376c0062438000f1ff28008100610001007000bd
:10377c00604388002f0037001e0090000040780046
:10378c00674060000080fb00670060004400dd00c3
:10379c0072438000f1f82f0081006100010070007d
:1037ac0070438800230037001e0090000040780012
:1037bc00674060000080fb00670060004800dd008f
:1037cc0072438000f18f2f008100610001007000b6
:1037dc0070438800170037001e00900000407800ee
:1037ec00674060000080fb0067006000924380002f
:1037fc0081ff2f0081006100010070009043880060
:10380c000c0037001e0090000040780067406000fc
:10381c000080fb00670060004400dd0092438000e4
:10382c00f1f82f00810061000100700090438800c6
:10383c00000000000080fa00000006000000fa0002
:10384c00002bef000006200010588800042bef001e
:10385c00062bef00082bef000a2bef00102bef00cc
:10386c00122bef00142bef00202bef00222bef007c
:10387c00302bef00322bef00382bef00402bef00fa
:10388c00482bef00502bef003a2bef00422bef00b0
:10389c004a2bef00522bef003c2bef00442bef0098
:1038ac004c2bef00542bef003e2bef00462bef0080
:1038bc004e2bef00562bef00682bef006c2bef001c
:1038cc00702bef00742bef0000402000505b880041
:1038dc0000402000705b880000402000905b880056
:1038ec0000402000b05b8800a02bef00a42bef0061
:1038fc00a82bef00ac2bef00d02bef00d22bef005e
:10390c00f02bef00f22bef00f82bef00fa2bef006f
:10391c00022cef000c2cef000e2cef00102cef0003
:10392c00122cef00142cef00162cef00182cef00cb
:10393c001a2cef001c2cef001e2cef00202cef009b
:10394c00222cef002c2cef002e2cef0020ed210070
:10395c000801070060f0210020010700e0ff2100b2
:10396c009a0107001160800000f020000100700037
:10397c001060880001eba800580007001000200020
:10398c00005c880010102000105c8800842bef0075
:10399c00862bef0000102000405c880010002000f7
:1039ac00505c8800902bef000080fa0000000600ad
:1039bc000000fa0001eba900002bef00000620002c
:1039cc0010588800042bef00062bef00082bef009b
:1039dc000a2bef00102bef00122bef00142bef0033
:1039ec00202bef00222bef00302bef00322bef00bf
:1039fc00382bef00402bef00482bef00502bef0043
:103a0c003a2bef00422bef004a2bef00522bef002a
:103a1c003c2bef00442bef004c2bef00542bef0012
:103a2c003e2bef00462bef004e2bef00562bef00fa
:103a3c00682bef006c2bef00702bef00742bef005a
:103a4c006a2bef006e2bef00722bef00762bef0042
:103a5c00802bef00822bef00842bef00862bef00e6
:103a6c00882bef008a2bef00902bef00a02bef00a0
:103a7c00a42bef00a82bef00ac2bef00d02bef000a
:103a8c00d22bef00f02bef00f22bef00f82bef0016
:103a9c00fa2bef00002cef00022cef000c2cef00a7
:103aac000e2cef00102cef00122cef00142cef005a
:103abc00162cef00182cef001a2cef001c2cef002a
:103acc001e2cef00202cef00222cef002c2cef00f2
:103adc002e2cef000080fa00000006000000fa0017
:103aec0000eca8000000000001608000000028002d
:103afc00008060000000e000fbff32000aeba80031
:103b0c000080fa00000006000600fa00100798007a
:103b1c00210798000000eb00000f78001e009000b9
:103b2c00e10f500013003200e10f50000500390086
:103b3c00e20f50001b003200e30f50002500320052
:103b4c00370037002e009000e10f500003003a00c0
:103b5c00a0002000000f7800310037002e009000ec
:103b6c00e20f500027003a00b0002000000f780050
:103b7c002b0037002e009000e10f500003003a009c
:103b8c0080002000000f7800250037002e009000e8
:103b9c00e20f50001d003a0090002000000f78004a
:103bac001f0037002e009000e10f500003003a0078
:103bbc0060002000000f7800190037002e009000e4
:103bcc00e20f500013003a0070002000000f780044
:103bdc00130037002e009000e10f500003003a0054
:103bec0040002000000f78000d0037002e009000e0
:103bfc00e20f500009003a0050002000000f78003e
:103c0c00070037000000000005003700000000002e
:103c1c000300370000000000010037000000000026
:103c2c001e0078000080fa00000006000800fa0070
:103c3c00100798002107980032079800be009000ea
:103c4c002e009000b0ff0700000f78001e009000bf
:103c5c00e20f500022003200e20f500005003e003f
:103c6c000000e00008003200e10f500011003200ab
:103c7c003e003700e30f500025003200e40f5000e7
:103c8c002f003200390037001e0078000040780009
:103c9c007f4060000080fb007f006000025c8000c1
:103cac0001fe2f008100610001007000005c8800a3
:103cbc002e0037001e007800004078007f40600026
:103ccc000080fb007f006000125c800001fe2f0072
:103cdc008100610001007000105c88002300370037
:103cec001e007800004078007f4060000080fb00e0
:103cfc007f0060004800dd00125c8000f10f2e0098
:103d0c008100610001007000105c88001700370012
:103d1c001e007800004078007f4060000080fb00af
:103d2c007f0060004800dd00425c8000f10f2e0037
:103d3c008100610001007000405c88000b003700be
:103d4c001e007800004078007f4060000080fb007f
:103d5c007f006000525c800001fe2f00810061003a
:103d6c0001007000505c8800000000000080fa0028
:103d7c00000006000200fa00000f78001e00780018
:103d8c000000e000020032009e00780041808800b4
:103d9c000080fa00000006000000fa000080fa0023
:103dac00000006000000fa00514080000040200096
:103dbc00008060000000e0000600320040808000bf
:103dcc000000e00002003200408080000000010092
:103ddc000b48a9000080fa00000006000200fa005f
:103dec00000f78001e0078000000e0000200320096
:103dfc009e007800518088000080fa0000000600c8
:103e0c000400fa00000f7800110798000080fa00f7
:103e1c00000006000400fa00100798001e00900035
:103e2c00e20f500028003200e20f500005003e0067
:103e3c000000e00008003200e10f500014003200d6
:103e4c0060003700e30f50002d003200e40f5000eb
:103e5c003a0032005b00370080598000610060003e
:103e6c000000e0004400320061608000010f780027
:103e7c00508080000000e000410032005280800041
:103e8c009e0078001e009000020001004d003700db
:103e9c0080598000640060000000e0003a003200ad
:103eac0081608000010f7800508080000000e000ed
:103ebc0037003200528080009e0078001e00900077
:103ecc00020001003f00370080598000680060004c
:103edc000000e0003000320091608000010f78009b
:103eec00508080000000e0002d00320052808000e5
:103efc009e0078001e009000020001003100370087
:103f0c008159800000202000008060000000e0004b
:103f1c0025003200f1608000010f78005080800095
:103f2c000000e00022003200528080009e007800e9
:103f3c001e00900002000100220037008159800011
:103f4c0000402000008060000000e0001a003200f9
:103f5c0001618000010f7800508080000000e000bb
:103f6c0017003200528080009e0078001e009000e6
:103f7c0002000100130037000000000011003700a0
:103f8c00000000000f003700000000000d0037009b
:103f9c00000000000b003700000000000900370093
:103fac00000000000700370000000000050037008b
:103fbc000000000003003700000000000100370083
:103fcc00000000000080fa00000006000200fa0069
:103fdc00000f78001e0078000000e00002003200a4
:103fec009e007800618088000080fa0000000600c6
:103ffc000200fa00000f78000080fa0000000600b2
:10400c000000fa003822ef0000802000d011880058
:10401c0000082000e0118800e0022000f011880068
:10402c00101a2000001288004222ef0039e2a8008a
:10403c0038a2a8003882a8000080fa000000060010
:10404c000000fa003822ef003a22ef0000082000ae
:10405c00e0118800e0022000f01188004022ef00ff
:10406c004222ef000080fa00000006000000fa0077
:10407c0000000000f0118000620060000000e00011
:10408c00fcff3a00e0118000620060000000e000dc
:10409c00010032003c22a900201280000040780070
:1040ac000080fa00000006000200fa00004f7800c1
:1040bc0000000000f0118000700060000000e000c3
:1040cc00fcff3a001e80fb00401288000080fa00c2
:1040dc00000006000000fa00f01180006200600091
:1040ec0000f0a7000000ea000000e9004f00de002d
:1040fc00004078000080fa00000006000000fa0082
:10410c00f0118000700060000000e00007003a0031
:10411c00c111800000022000008060000000e0005f
:10412c000200320010002000010037000000eb00fc
:10413c00004078000080fa00000006000000fa0041
:10414c00e111800000082000008060000000e00009
:10415c0007003200f1118000000220000080600096
:10416c000000e000020032001000200001003700c7
:10417c000000eb00004078000080fa000000060010
:10418c000000fa0038a2a8000080fa000000060027
:10419c000000fa0038a2a9000080fa000000060016
:1041ac000200fa00004f78005cc2a9001e80fb00e0
:1041bc00610060004200dd00e11280000120a100de
:1041cc0001007000e01288001e80fb00610060009e
:1041dc004600dd00c11180000160a10001007000eb
:1041ec00c01188000080fa00000006000000fa00f0
:1041fc00c011800066800a00000000000080fb00f7
:10420c0000f0a7000000ea000000ea004f00de000a
:10421c00004078000080fa00000006000000fa0060
:10422c00e012800022800a00000000000080fb00e9
:10423c0000f0a7000000ea000000ea004f00de00da
:10424c00004078000080fa00000006000000fa0030
:10425c001830ef00e0118000680060000000e00002
:10426c0003003200c08080000000a000c0808800e5
:10427c00e111800000042000008060000000e000dc
:10428c0003003200c08080000010a000c0808800b5
:10429c00e0118000620060000000e00004003200c9
:1042ac00c08080000020a000c08088003c22a900b3
:1042bc00e0118000610060000000e00004003200aa
:1042cc00c08080000030a000c08088003c02a900a3
:1042dc00e111800000022000008060000000e0007e
:1042ec0004003200c08080000040a000c080880024
:1042fc003ca2a900c08080000080fa0000000600eb
:10430c000400fa00008fbe001e0078000012880026
:10431c001e00be004008de00000078006f00600048
:10432c00101288000080fa00000006000400fa0059
:10433c00101280008000eb00008fbe001e00be003b
:10434c00c001dd0002002000001280008000eb00a4
:10435c00001f7100019771001e00be000080fa0062
:10436c00000006000800fa002007980031079800aa
:10437c002e019000be0190003000200001002000b2
:10438c00800f5100818f59000e0036002e009000d6
:10439c00be009000e00f5000e08f58000900320082
:1043ac003b62a80038e2a9002e019000be019000eb
:1043bc0000902000d1032000e0f20700008fbe0027
:1043cc00100037003b62a90038e2a8002e019000d3
:1043dc00be0190004218dd00ce10de00810070009e
:1043ec004210dd000001be0000902000d10320002f
:1043fc00d2f207000081eb008081eb00021f40002d
:10440c00039748001e007800001288001e00be00b2
:10441c004008de00000078006f0060001012880079
:10442c000080fa00000006000800fa00bfff070039
:10443c002007980031079800d111800000802000df
:10444c00008060000000e0000c0032002e009000a4
:10445c00be009000e00f5000e08f580007003200c3
:10446c002e019000be01900000902000d10320008e
:10447c00b2f20700008fbe0020003700c11180008f
:10448c0000082000008060000000e0000e003200f8
:10449c002e009000be00900061014000e0814800b9
:1044ac004218dd00ce10de00810070004210dd00ed
:1044bc000001be0000902000d10320009ff20700f5
:1044cc00008fbe000d0037002e009000be00900043
:1044dc0061014000e08148004418dd00cc10de0092
:1044ec00810070004410dd000001be00009020002f
:1044fc00d103200091f20700008fbe001e00be0009
:10450c000080fa00000006000400fa001007980072
:10451c000040eb00004f78001e0090000000e0000f
:10452c0002003d0010c0b300004f78001e40780020
:10453c000080fa00000006000400fa001007980042
:10454c000040eb00004f78009e009000000024001b
:10455c00008060000000e0000200320010c0b300d8
:10456c00004f78001e4078000080fa000000060022
:10457c000400fa00100798000040eb00004f780090
:10458c009e00900000202000008060000000e000f1
:10459c000200320010c0b300004f78001e407800bb
:1045ac000080fa00000006000400fa0010079800d2
:1045bc000040eb00004f78009e00900000082000a7
:1045cc00008060000000e0000200320010c0b30068
:1045dc00004f78001e4078000080fa0000000600b2
:1045ec000400fa00100798000040eb00004f780020
:1045fc009e00900000042000008060000000e0009d
:10460c000200320010c0b300004f78001e4078004a
:10461c000080fa00000006000400fa001007980061
:10462c000040eb00004f78001e009000700060000e
:10463c000000e0000200320010c0b300004f780010
:10464c001e4078000080fa00000006000200fa000c
:10465c00000f78009e80ea00007c800000806000e3
:10466c00007c88000080fa00000006000000fa00c0
:10467c00007c80000080fa00000006000200fa00b6
:10468c00faff0700000f78001e0078009eff07005d
:10469c000004e0000200320000002800ebff0700dd
:1046ac001e007800a4ff07000004e00002003200a6
:1046bc0000002400e5ff07001e007800acff070097
:1046cc000004e0000200320000202000dfff0700a1
:1046dc001e007800b4ff07000004e0000200320066
:1046ec0000082000d9ff07001e007800bcff07005f
:1046fc000004e0000200320000042000d3ff070099
:10470c001e007800c4ff07000004e0000200320025
:10471c0000012000cdff07000080fa000000060019
:10472c000000fa00802fef000080fa000000060065
:10473c000000fa00c3e8a800000000000000000020
:10474c000080fa00000006000000fa00c3e8a9008f
:10475c0000000000000000000080fa0000000600cd
:10476c000000fa00f8ff07006a010700f0ff0700dd
:10477c00604922006100070025a8a8000080fa000b
:10478c00000006000000fa0000002800e00288008b
:10479c000080fa00000006000000fa00000024006f
:1047ac000003880010c0b30000f0b7000080fa00ce
:1047bc00000006000000fa000070ef00000000008e
:1047cc0040038000610060000000e000fcff32004c
:1047dc0080002000200388000080fa000000060002
:1047ec000200fa000040eb00004f7800400380000c
:1047fc0061006000004078000004e000020032001c
:10480c0010c0b300004f78001e4078000080fa0002
:10481c00000006000000fa0000d0bf000080fa0083
:10482c00000006000400fa006000b800008fbe0013
:10483c00b00380008000eb00c000dd000000200011
:10484c00008fbe00a00380008000eb003e017000d2
:10485c00ae8170000200be000080fa00000006006d
:10486c000400fa006000b800008fbe00d003800086
:10487c008000eb00c000dd0000002000008fbe00b7
:10488c00c00380008000eb003e017000ae81700020
:10489c000200be000080fa00000006000200fa00d0
:1048ac000000eb00000f780041038000100e200088
:1048bc00008f60001e0078000080fa0000000600e7
:1048cc000400fa006000b800008fbe007003800086
:1048dc008000eb00c000dd0000002000008fbe0057
:1048ec00600380008000eb003e017000ae81700020
:1048fc000200be000080fa00000006000200fa0070
:10490c00000f78001e0078000000e000020032006a
:10491c009e007800318088000080fa0000000600bc
:10492c000000fa000080fa00000006000000fa0007
:10493c00400880008000eb000080fa0000000600b8
:10494c000000fa00200880008000eb000080fa00d4
:10495c00000006000000fa000021ef000421ef0027
:10496c007013200040088800405222002a000700e3
:10497c00090007000080fa00000006000000fa00a1
:10498c000b0007000021ef000421ef000821ef00cd
:10499c000080fa00000006000000fa000028a900c0
:1049ac002028a80001e1a8000080fa000000060001
:1049bc000000fa0001e1a9002028a9000080fa00fb
:1049cc00000006000400fa00008fbe001e007800f4
:1049dc00400888000080fa00000006000200fa007f
:1049ec00000f78001e0078000040780067406000df
:1049fc000080fb00670060004400dd000242800084
:104a0c00f1f82f0081006100010070000042880065
:104a1c000080fa00000006000200fa00000f780087
:104a2c001e0078000000e000020032009e007800ba
:104a3c00b18088000080fa00000006000000fa0037
:104a4c000080fa00000006000200fa00000f780057
:104a5c009e007800410888000080fa0000000600e3
:104a6c000400fa00000f7800110798001e0078006f
:104a7c00e10f500003003200e20f5000040032003e
:104a8c00060037009e009000711a88000300370062
:104a9c009e009000211c8800000000000080fa009d
:104aac00000006000000fa007080800080004000ca
:104abc00407c2800008040001000780080007800c6
:104acc0010002000e6ff070080808000800040007e
:104adc00c0b22800008040001000780080007800f0
:104aec0020002000deff0700708080000000e8003e
:104afc007080880071808000301b2000808f5000f7
:104b0c00010036000e30ef00808080000000e800cd
:104b1c008080880081808000301b2000808f5000b6
:104b2c00010036001030ef000080fa000000060093
:104b3c000000fa00a6000700d080800080089000da
:104b4c008055220001000100ffff37000000fa0031
:104b5c00062eef001000200010718800f0012000dc
:104b6c0010708800003f2000f07088000a2eef00c3
:104b7c00262eef000c2eef00282eef00082eef0053
:104b8c00242eef00f0012000007088000038200077
:104b9c00e07088000000eb0051052000b146880051
:104bac00a10a2000b146880000688800016c8000d2
:104bbc0000fc2f00008060000000a000006c88004a
:104bcc000080200051052000b1468800a10a200079
:104bdc00b1468800006888000080fa0000000600da
:104bec000000fa0010002300307c880060092000cf
:104bfc00407c88008c2fef0010042000507c880033
:104c0c00b82fef00ba2fef00be2fef00002def00f2
:104c1c00a02fef00a42fef00a62fef00a82fef007e
:104c2c00aa2fef00ae2fef00b02fef00b22fef0046
:104c3c000001eb0080072000a109200053f82000a0
:104c4c008049780081497800824978000001eb00a6
:104c5c00600420007105200043f820008049780092
:104c6c0081497800824978000080fa000000060033
:020000040000fa
:104c7c000810000006000000800000001210000068
:104c8c0002000000800000001c100000200000004a
:104c9c0080000000141000000200000082000000e0
:104cac00ffff000000100000080000008000000062
:104cbc001610000002000000800000001810000018
:104ccc0002000000800000000e1000000400000034
:104cdc00800000001a10000002000000820000009a
:084cec00628f000000000000cf
:020000040000fa
:104cf4000000fe006624020000000000821f78000d
:104d040012808000000011000200200081001900c0
:104d14004f017800000006000000fe00801f7800ac
:104d2400811f7800821f780060038000801f780054
:104d340066240200000000004f01780002015000c8
:104d44000201e900128088004f017800cf0078004a
:104d54004f007800000006000000fa00b142800015
:104d6400f0f82f00008060000040a000b0428800ee
:104d740001428000f0f82f00008060000040a00095
:104d8400004288000080fa00000006000000fa00db
:104d9400b1428000f0f82f00008060000060a000a5
:104da400b042880001428000f0f82f0000806000cb
:104db4000060a000004288000080fa0000000600a5
:104dc4000000fa00c3e8a800000000000000000092
:104dd4000080fa00000006000000fa0082ff0700cd
:104de4005cff070097fa07005ffe070055f807000d
:104df400dafe070084fc0700f1ff0700d6ff070076
:104e04000080fa00000006000200fa00000f78009b
:104e14009e007800a18088000000fe000080fa0057
:104e2400000006000000fa00c0012100800778009d
:104e340040032100000188000080fa000000060001
:020000040000fa
:04be0000ffffff0041
:020000040000fa
:04be2000ffffff0021
:020000040000fa
:04be300078ffff0098
:020000040000fa
:04be3800bbffff004d
:020000040000fa
:04be4000ff7fff0081
:020000040000fa
:04be4800ffffff00f9
:020000040000fa
:04be5000ddffff0013
:020000040000fa
:04be58000000ff00e7
:020000040000fa
:04be60000000ff00df
:020000040000fa
:04be68000000ff00d7
:020000040000fa
:04be70000000ff00cf
:020000040000fa
:04be7800ffffff00c9
:020000040000fa
:04be8000fffcff00c4
:020000040000fa
:04be8800ffffff00b9
:00000001FF
